{
  "_format": "hh-sol-artifact-1",
  "contractName": "SecureVault",
  "sourceName": "contracts/SecureVault.sol",
  "abi": [
    {
      "inputs": [
        {
          "internalType": "address",
          "name": "authManager",
          "type": "address"
        }
      ],
      "stateMutability": "nonpayable",
      "type": "constructor"
    },
    {
      "anonymous": false,
      "inputs": [
        {
          "indexed": true,
          "internalType": "address",
          "name": "from",
          "type": "address"
        },
        {
          "indexed": false,
          "internalType": "uint256",
          "name": "amount",
          "type": "uint256"
        }
      ],
      "name": "Deposit",
      "type": "event"
    },
    {
      "anonymous": false,
      "inputs": [
        {
          "indexed": true,
          "internalType": "address",
          "name": "to",
          "type": "address"
        },
        {
          "indexed": false,
          "internalType": "uint256",
          "name": "amount",
          "type": "uint256"
        }
      ],
      "name": "Withdrawal",
      "type": "event"
    },
    {
      "inputs": [],
      "name": "authorizationManager",
      "outputs": [
        {
          "internalType": "contract AuthorizationManager",
          "name": "",
          "type": "address"
        }
      ],
      "stateMutability": "view",
      "type": "function"
    },
    {
      "inputs": [
        {
          "internalType": "address",
          "name": "recipient",
          "type": "address"
        },
        {
          "internalType": "uint256",
          "name": "amount",
          "type": "uint256"
        },
        {
          "internalType": "uint256",
          "name": "nonce",
          "type": "uint256"
        },
        {
          "internalType": "uint256",
          "name": "expiry",
          "type": "uint256"
        },
        {
          "internalType": "bytes",
          "name": "signature",
          "type": "bytes"
        }
      ],
      "name": "withdraw",
      "outputs": [],
      "stateMutability": "nonpayable",
      "type": "function"
    },
    {
      "stateMutability": "payable",
      "type": "receive"
    }
  ],
  "bytecode": "0x608060405234801561001057600080fd5b50604051610880380380610880833981810160405281019061003291906100db565b806000806101000a81548173ffffffffffffffffffffffffffffffffffffffff021916908373ffffffffffffffffffffffffffffffffffffffff16021790555050610108565b600080fd5b600073ffffffffffffffffffffffffffffffffffffffff82169050919050565b60006100a88261007d565b9050919050565b6100b88161009d565b81146100c357600080fd5b50565b6000815190506100d5816100af565b92915050565b6000602082840312156100f1576100f0610078565b5b60006100ff848285016100c6565b91505092915050565b610769806101176000396000f3fe60806040526004361061002d5760003560e01c80638cfa228c14610087578063ddf1858a146100b257610082565b36610082573373ffffffffffffffffffffffffffffffffffffffff167fe1fffcc4923d04b559f4d29a8bfc6cda04eb5b0d3c460751c2402c5c5cc9109c3460405161007891906102e6565b60405180910390a2005b600080fd5b34801561009357600080fd5b5061009c6100db565b6040516100a99190610380565b60405180910390f35b3480156100be57600080fd5b506100d960048036038101906100d49190610474565b6100ff565b005b60008054906101000a900473ffffffffffffffffffffffffffffffffffffffff1681565b84471015610142576040517f08c379a00000000000000000000000000000000000000000000000000000000081526004016101399061056b565b60405180910390fd5b60008060009054906101000a900473ffffffffffffffffffffffffffffffffffffffff1673ffffffffffffffffffffffffffffffffffffffff1663dd881845308989898989896040518863ffffffff1660e01b81526004016101aa97969594939291906105f8565b6020604051808303816000875af11580156101c9573d6000803e3d6000fd5b505050506040513d601f19601f820116820180604052508101906101ed919061069a565b90508061022f576040517f08c379a000000000000000000000000000000000000000000000000000000000815260040161022690610713565b60405180910390fd5b8673ffffffffffffffffffffffffffffffffffffffff166108fc879081150290604051600060405180830381858888f19350505050158015610275573d6000803e3d6000fd5b508673ffffffffffffffffffffffffffffffffffffffff167f7fcf532c15f0a6db0bd6d0e038bea71d30d808c7d98cb3bf7268a95bf5081b65876040516102bc91906102e6565b60405180910390a250505050505050565b6000819050919050565b6102e0816102cd565b82525050565b60006020820190506102fb60008301846102d7565b92915050565b600073ffffffffffffffffffffffffffffffffffffffff82169050919050565b6000819050919050565b600061034661034161033c84610301565b610321565b610301565b9050919050565b60006103588261032b565b9050919050565b600061036a8261034d565b9050919050565b61037a8161035f565b82525050565b60006020820190506103956000830184610371565b92915050565b600080fd5b600080fd5b60006103b082610301565b9050919050565b6103c0816103a5565b81146103cb57600080fd5b50565b6000813590506103dd816103b7565b92915050565b6103ec816102cd565b81146103f757600080fd5b50565b600081359050610409816103e3565b92915050565b600080fd5b600080fd5b600080fd5b60008083601f8401126104345761043361040f565b5b8235905067ffffffffffffffff81111561045157610450610414565b5b60208301915083600182028301111561046d5761046c610419565b5b9250929050565b60008060008060008060a087890312156104915761049061039b565b5b600061049f89828a016103ce565b96505060206104b089828a016103fa565b95505060406104c189828a016103fa565b94505060606104d289828a016103fa565b935050608087013567ffffffffffffffff8111156104f3576104f26103a0565b5b6104ff89828a0161041e565b92509250509295509295509295565b600082825260208201905092915050565b7f496e73756666696369656e74207661756c742062616c616e6365000000000000600082015250565b6000610555601a8361050e565b91506105608261051f565b602082019050919050565b6000602082019050818103600083015261058481610548565b9050919050565b610594816103a5565b82525050565b600082825260208201905092915050565b82818337600083830152505050565b6000601f19601f8301169050919050565b60006105d7838561059a565b93506105e48385846105ab565b6105ed836105ba565b840190509392505050565b600060c08201905061060d600083018a61058b565b61061a602083018961058b565b61062760408301886102d7565b61063460608301876102d7565b61064160808301866102d7565b81810360a08301526106548184866105cb565b905098975050505050505050565b60008115159050919050565b61067781610662565b811461068257600080fd5b50565b6000815190506106948161066e565b92915050565b6000602082840312156106b0576106af61039b565b5b60006106be84828501610685565b91505092915050565b7f417574686f72697a6174696f6e206661696c6564000000000000000000000000600082015250565b60006106fd60148361050e565b9150610708826106c7565b602082019050919050565b6000602082019050818103600083015261072c816106f0565b905091905056fea26469706673582212202b74ed9e1100f1161d4aebea691fbc26f3eecf16cdec458a91bdbb750a90435664736f6c63430008140033",
  "linkReferences": {},
  "deployedLinkReferences": {}
}