{
  "_format": "hh-sol-artifact-1",
  "contractName": "AuthorizationManager",
  "sourceName": "contracts/AuthorizationManager.sol",
  "abi": [
    {
      "inputs": [
        {
          "internalType": "address",
          "name": "_signer",
          "type": "address"
        }
      ],
      "stateMutability": "nonpayable",
      "type": "constructor"
    },
    {
      "inputs": [
        {
          "internalType": "address",
          "name": "_vault",
          "type": "address"
        }
      ],
      "name": "setVault",
      "outputs": [],
      "stateMutability": "nonpayable",
      "type": "function"
    },
    {
      "inputs": [],
      "name": "signer",
      "outputs": [
        {
          "internalType": "address",
          "name": "",
          "type": "address"
        }
      ],
      "stateMutability": "view",
      "type": "function"
    },
    {
      "inputs": [],
      "name": "vault",
      "outputs": [
        {
          "internalType": "address",
          "name": "",
          "type": "address"
        }
      ],
      "stateMutability": "view",
      "type": "function"
    },
    {
      "inputs": [
        {
          "internalType": "address",
          "name": "vaultAddress",
          "type": "address"
        },
        {
          "internalType": "address",
          "name": "recipient",
          "type": "address"
        },
        {
          "internalType": "uint256",
          "name": "amount",
          "type": "uint256"
        },
        {
          "internalType": "uint256",
          "name": "nonce",
          "type": "uint256"
        },
        {
          "internalType": "uint256",
          "name": "expiry",
          "type": "uint256"
        },
        {
          "internalType": "bytes",
          "name": "signature",
          "type": "bytes"
        }
      ],
      "name": "verifyAuthorization",
      "outputs": [
        {
          "internalType": "bool",
          "name": "",
          "type": "bool"
        }
      ],
      "stateMutability": "nonpayable",
      "type": "function"
    }
  ],
  "bytecode": "0x608060405234801561001057600080fd5b50604051610ca3380380610ca3833981810160405281019061003291906100dc565b80600160006101000a81548173ffffffffffffffffffffffffffffffffffffffff021916908373ffffffffffffffffffffffffffffffffffffffff16021790555050610109565b600080fd5b600073ffffffffffffffffffffffffffffffffffffffff82169050919050565b60006100a98261007e565b9050919050565b6100b98161009e565b81146100c457600080fd5b50565b6000815190506100d6816100b0565b92915050565b6000602082840312156100f2576100f1610079565b5b6000610100848285016100c7565b91505092915050565b610b8b806101186000396000f3fe608060405234801561001057600080fd5b506004361061004c5760003560e01c8063238ac933146100515780636817031b1461006f578063dd8818451461008b578063fbfa77cf146100bb575b600080fd5b6100596100d9565b60405161006691906105a2565b60405180910390f35b610089600480360381019061008491906105f3565b6100ff565b005b6100a560048036038101906100a091906106bb565b6101d1565b6040516100b29190610785565b60405180910390f35b6100c3610480565b6040516100d091906105a2565b60405180910390f35b600160009054906101000a900473ffffffffffffffffffffffffffffffffffffffff1681565b600073ffffffffffffffffffffffffffffffffffffffff1660008054906101000a900473ffffffffffffffffffffffffffffffffffffffff1673ffffffffffffffffffffffffffffffffffffffff161461018e576040517f08c379a0000000000000000000000000000000000000000000000000000000008152600401610185906107fd565b60405180910390fd5b806000806101000a81548173ffffffffffffffffffffffffffffffffffffffff021916908373ffffffffffffffffffffffffffffffffffffffff16021790555050565b60008060009054906101000a900473ffffffffffffffffffffffffffffffffffffffff1673ffffffffffffffffffffffffffffffffffffffff163373ffffffffffffffffffffffffffffffffffffffff1614610262576040517f08c379a000000000000000000000000000000000000000000000000000000000815260040161025990610869565b60405180910390fd5b834211156102a5576040517f08c379a000000000000000000000000000000000000000000000000000000000815260040161029c906108d5565b60405180910390fd5b60008846898989896040516020016102c296959493929190610904565b6040516020818303038152906040528051906020012090506002600082815260200190815260200160002060009054906101000a900460ff161561033b576040517f08c379a0000000000000000000000000000000000000000000000000000000008152600401610332906109b1565b60405180910390fd5b60008160405160200161034e9190610a53565b604051602081830303815290604052805190602001209050600160009054906101000a900473ffffffffffffffffffffffffffffffffffffffff1673ffffffffffffffffffffffffffffffffffffffff166103ed8287878080601f016020809104026020016040519081016040528093929190818152602001838380828437600081840152601f19601f820116905080830192505050505050506104a4565b73ffffffffffffffffffffffffffffffffffffffff1614610443576040517f08c379a000000000000000000000000000000000000000000000000000000000815260040161043a90610ac5565b60405180910390fd5b60016002600084815260200190815260200160002060006101000a81548160ff021916908315150217905550600192505050979650505050505050565b60008054906101000a900473ffffffffffffffffffffffffffffffffffffffff1681565b600060418251146104ea576040517f08c379a00000000000000000000000000000000000000000000000000000000081526004016104e190610ac5565b60405180910390fd5b60008060006020850151925060408501519150606085015160001a90506001868285856040516000815260200160405260405161052a9493929190610b10565b6020604051602081039080840390855afa15801561054c573d6000803e3d6000fd5b50505060206040510351935050505092915050565b600073ffffffffffffffffffffffffffffffffffffffff82169050919050565b600061058c82610561565b9050919050565b61059c81610581565b82525050565b60006020820190506105b76000830184610593565b92915050565b600080fd5b600080fd5b6105d081610581565b81146105db57600080fd5b50565b6000813590506105ed816105c7565b92915050565b600060208284031215610609576106086105bd565b5b6000610617848285016105de565b91505092915050565b6000819050919050565b61063381610620565b811461063e57600080fd5b50565b6000813590506106508161062a565b92915050565b600080fd5b600080fd5b600080fd5b60008083601f84011261067b5761067a610656565b5b8235905067ffffffffffffffff8111156106985761069761065b565b5b6020830191508360018202830111156106b4576106b3610660565b5b9250929050565b600080600080600080600060c0888a0312156106da576106d96105bd565b5b60006106e88a828b016105de565b97505060206106f98a828b016105de565b965050604061070a8a828b01610641565b955050606061071b8a828b01610641565b945050608061072c8a828b01610641565b93505060a088013567ffffffffffffffff81111561074d5761074c6105c2565b5b6107598a828b01610665565b925092505092959891949750929550565b60008115159050919050565b61077f8161076a565b82525050565b600060208201905061079a6000830184610776565b92915050565b600082825260208201905092915050565b7f5661756c7420616c726561647920736574000000000000000000000000000000600082015250565b60006107e76011836107a0565b91506107f2826107b1565b602082019050919050565b60006020820190508181036000830152610816816107da565b9050919050565b7f4f6e6c79207661756c7420616c6c6f7765640000000000000000000000000000600082015250565b60006108536012836107a0565b915061085e8261081d565b602082019050919050565b6000602082019050818103600083015261088281610846565b9050919050565b7f417574686f72697a6174696f6e20657870697265640000000000000000000000600082015250565b60006108bf6015836107a0565b91506108ca82610889565b602082019050919050565b600060208201905081810360008301526108ee816108b2565b9050919050565b6108fe81610620565b82525050565b600060c0820190506109196000830189610593565b61092660208301886108f5565b6109336040830187610593565b61094060608301866108f5565b61094d60808301856108f5565b61095a60a08301846108f5565b979650505050505050565b7f417574686f72697a6174696f6e20616c72656164792075736564000000000000600082015250565b600061099b601a836107a0565b91506109a682610965565b602082019050919050565b600060208201905081810360008301526109ca8161098e565b9050919050565b600081905092915050565b7f19457468657265756d205369676e6564204d6573736167653a0a333200000000600082015250565b6000610a12601c836109d1565b9150610a1d826109dc565b601c82019050919050565b6000819050919050565b6000819050919050565b610a4d610a4882610a28565b610a32565b82525050565b6000610a5e82610a05565b9150610a6a8284610a3c565b60208201915081905092915050565b7f496e76616c6964207369676e6174757265000000000000000000000000000000600082015250565b6000610aaf6011836107a0565b9150610aba82610a79565b602082019050919050565b60006020820190508181036000830152610ade81610aa2565b9050919050565b610aee81610a28565b82525050565b600060ff82169050919050565b610b0a81610af4565b82525050565b6000608082019050610b256000830187610ae5565b610b326020830186610b01565b610b3f6040830185610ae5565b610b4c6060830184610ae5565b9594505050505056fea2646970667358221220c4e4c736fa3d64716fcc4ee05e46b05ddc36cf934ca84b021c35b631ebb8f1f264736f6c63430008140033",
  "linkReferences": {},
  "deployedLinkReferences": {}
}